:020000040800F2
:1000000098D50020C1010008C32B0008591B000827
:10001000C12B0008F5090008854000080000000019
:100020000000000000000000000000000936000889
:10003000F7090008000000005D3300080B360008D7
:10004000DB010008DB010008DB010008DB01000820
:10005000DB010008DB010008DB010008DB01000810
:10006000DB010008DB010008DB010008DB01000800
:10007000DB010008DB010008DB010008DB010008F0
:10008000DB010008DB010008DB010008DB010008E0
:10009000DB010008DB010008DB010008DB010008D0
:1000A000DB010008DB010008DB010008DB010008C0
:1000B000DB010008DB010008DB010008DB010008B0
:1000C000DB010008DB010008DB010008DB010008A0
:1000D000DB010008DB010008DB010008DD36000859
:1000E000DB010008DB010008DB010008DB01000880
:1000F000DB010008DB010008DB010008DB01000870
:10010000DB010008DB010008DB010008DB0100085F
:10011000DB010008DB010008DB010008DB0100084F
:10012000DB010008DB010008DB010008DB0100083F
:10013000DB010008F9090008DB010008DB01000809
:10014000DB010008DB010008DB010008DB0100081F
:10015000DB010008DB010008DB010008DB0100080F
:10016000DB010008DB010008DB010008DB010008FF
:10017000DB010008DB010008DB01000800000000D3
:10018000DB010008DB010008DB010008DB010008DF
:10019000DB010008DB010008DB010008DB010008CF
:1001A000DB010008DB010008DB010008DFF80CD0F0
:1001B00000F06CFB004800479155000898D50020DE
:1001C0000648804706480047FEE7FEE7FEE7FEE7F1
:1001D000FEE7FEE7FEE7FEE7FEE7FEE71136000872
:1001E000AD0100082DE9F05F0546002092469B46D0
:1001F00088460646814640241BE02846414647463D
:10020000224600F0D6F953465A46C01A914110D3FF
:1002100011461846224600F0BDF92D1A67EB010879
:100220004F4622460120002100F0B4F917EB0009E7
:100230004E41201EA4F10104DFDC484631462A4627
:100240004346BDE8F09FD2B201E000F8012B491E01
:10025000FBD270470022F6E710B513460A46044663
:100260001946FFF7F0FF204610BD421C10F8011B95
:100270000029FBD1801A70472DE9FE4F804681EAA4
:100280000300C00F0C46009021F0004123F0004510
:10029000B8EB0200A94105D24046214690461C46D3
:1002A0000B46024623F00040104347D0270DC7F30A
:1002B0000A00C3F30A510290401A019040286BDAF9
:1002C000C3F3130040F4801B0098924620B1002332
:1002D000D2EB030A63EB0B0B01985946C0F14002C5
:1002E000504600F057F906460D4650465946019AC9
:1002F00000F06FF910EB08006141002487EA115209
:1003000084EAE7731A4340D0009A62B3019A012A43
:100310004FEA075215DC001B61EB02014FF000426F
:1003200002EA0752CDE90042001C41F58011324635
:100330002B4600F0A6F903B0BDE8F08F40462146F9
:10034000F9E7001B61EB0201001C41F58013001866
:100350005B412018A2F5001747EB030140EAD57076
:10036000B6196D4111E06D084FEA360645EAC075D1
:100370004FEA0752001B61EB0201001C41F580119E
:1003800049084FEA30000019514132462B4603B06C
:10039000BDE8F04F00F066B900980122400000234C
:1003A000D0EB020263EBE073009821464FEAE07461
:1003B000B8EB000061EB0401E9E783F000435BE781
:1003C00081F0004158E72DE9FE4F81EA030404F073
:1003D000004421F0004100944FF0000B23F0004353
:1003E00050EA01045ED052EA03045BD0C3F30A541E
:1003F000C1F30A552C44A4F2F3340194A0FB025437
:10040000C1F3130141F48011C3F3130343F48013C8
:1004100001FB024400FB034E840A970A44EA81541C
:1004200047EA8357A4FB076802958D0A05FB0785F9
:100430004FEA932C04FB0C542705029D4FEA065803
:1004400047EA1637B5EB08056EEB070C870E920EE0
:1004500047EA811742EA8312A7FB0201B6EB0B01C0
:1004600064EB00042B0D43EA0C335E1844EB1C5084
:10047000DA465146E7FB0201C5F313044FEA0B339A
:1004800043EA14534FEA0432019C43EA0603A4F101
:100490000C040294009CCDE900B400F0F2F803B023
:1004A000BDE8F08F00200146F9E70EB5C10F80EAE4
:1004B000E0700844CA07002140F233438DE80E0083
:1004C0000A460B4600F0DDF803B000BD70B5C1F37D
:1004D0000A5201F000450024C1F3130140F2FF333A
:1004E00041F480119A4201DA002070BD40F233439A
:1004F0009A42A2F2334203DC524200F05AF800E082
:1005000090402C43F1D0404270BD00F0004230F0EA
:1005100000400AD0C10D01F56071C0F3160042EA37
:100520000151C2084007114370470020014670473F
:1005300001F0004330B421F0004150EA010206D03E
:100540000A0DA2F56072C1F31301002A02DC30BC6F
:1005500000207047440F44EAC104C100E01830BCD9
:1005600000EBC25000F047B830B50B460146002002
:100570002022012409E021FA02F59D4205D303FA65
:1005800002F5491B04FA02F52844151EA2F10102E6
:10059000F1DC30BD202A04DB203A00FA02F1002011
:1005A00070479140C2F1200320FA03F319439040B1
:1005B0007047202A04DB203A21FA02F0002170471C
:1005C00021FA02F3D040C2F12002914008431946BB
:1005D0007047202A06DBCB17203A41FA02F043EAA3
:1005E000E07306E041FA02F3D040C2F120029140EC
:1005F0000843194670470029A8BF7047401C4900AE
:1006000008BF20F00100704710B4B0FA80FC00FA77
:100610000CF050EA010404BF10BC704749B1CCF1A2
:10062000200421FA04F411FA0CF118BF012121432E
:100630000843A3EB0C01CB1D4FEA00614FEA1020E9
:1006400042BF002010BC704700EBC350104400298B
:10065000A4BF10BC7047401C490008BF20F0010037
:1006600010BC704710B5141E73F1000408DA401C6A
:1006700041F1000192185B411A4301D120F00100C1
:1006800010BD2DE9F04D92469B4611B1B1FA81F2B1
:1006900002E0B0FA80F220329046FFF77BFF04467A
:1006A0000F4640EA0A0041EA0B0153465A46084306
:1006B00013D0114653EA010019D0C8F14002504648
:1006C000FFF777FF05460E46504659464246FFF76C
:1006D00061FF084305D0012004E020463946BDE80B
:1006E000F08D0020054346EAE0762C4337430A9814
:1006F0006305E40AA0EB08000022FD0A44EA47541F
:100700000A3002D500200146E9E7010510196941C8
:10071000DDE9084500196941BDE8F04DA2E72DE982
:10072000F04D81EA030404F0004B21F0004514462B
:100730004FF0000A23F0004150EA050220D054EAAD
:1007400001021DD0C5F30A570246C5F31303C1F3D6
:100750001300C1F30A5640F4801543F48013A7EB4D
:100760000608101BD64608F2FD3873EB050002D3CD
:1007700008F1010801E092185B41B8F1000F03DABB
:1007800000200146BDE8F08D00204FF480110646A0
:1007900084460EE0171B73EB050705D3121B63EBB2
:1007A000050306434CEA010C49084FEA3000921851
:1007B0005B4150EA0107EDD152EA030012D082EA10
:1007C000040083EA0501084305D0101BAB4106D2A3
:1007D0000122002306E000224FF0004302E06FF008
:1007E000010253101AEB06004CEB085110EB0A0003
:1007F00041EB0B01BDE8F04DFFF734BFC1F30A52E6
:10080000C1F3130140F2FF3341F480119A4202DA3E
:1008100000200146704740F233439A42A2F233422D
:1008200002DC5242FFF7C5BEFFF7B4BE30B5041E6E
:1008300071F1000404DB4FF00044404264EB01011D
:10084000141E73F1000405DB1C464FF000435242B6
:1008500063EB04038B4208BF824230BD30B5041EF7
:1008600071F1000404DB4FF00044404264EB0101ED
:10087000141E73F1000405DB1C464FF00043524286
:1008800063EB0403994208BF904230BD064C074D0C
:1008900006E0E06840F0010394E807009847103450
:1008A000AC42F6D3FFF786FC186F0008386F0008DB
:1008B00000F040BBB0B54E4D286810B1013828603B
:1008C00001D00020B0BD0C48D54C016821F40011C6
:1008D000016020464FF4807100F0EEF920464FF49D
:1008E000007100F0E9F9281D00F051FB002818BF45
:1008F0006FF00700B0BD00BF403802402DE9F04F57
:1009000087B0C74D3A48A5F5D831416001684A1C07
:10091000026009B1002642E0041D204600F04DFBB4
:100920000026E0BBBD4F01964FF004094FF0030ACB
:100930004FF0120B0DF108084146386840F00200F4
:100940003860386800F0020001904FF48070CDF8F4
:100950001890CDE9046ACDF80CB0029001982846B1
:1009600000F014FA4FF400704146CDE905A9CDE935
:1009700003B60290284600F009FA0196386940F45F
:1009800000103861386900F4001001900198204689
:1009900002F0F0F80646002818BF6FF00706304650
:1009A00007B0BDE8F08F00BFBFB502F037F91048BF
:1009B00002F043FC38B102F07FFA02F0E7FA08BF18
:1009C0006FF0650000E0002004B0B0BDBFB502F0DC
:1009D00025F9074802F015FC38B102F06DFA02F073
:1009E000D5FA08BF6FF0650000E0002004B0B0BD8C
:1009F000F0000020FEE77047014800F026B900BF74
:100A00004801002018B56749421802F5A0514FEA85
:100A1000B123082B00F2B9808049DFE813F0090008
:100A2000210039005000660079009700A800B70047
:100A3000002300930B6843F001030B600B6803F085
:100A40000103009302F580534FEAB323009C072B68
:100A500000F29B80DFE803F0041C33495C7A8B9A38
:100A6000002300930B6843F002030B600B6803F054
:100A70000203009302F540634FEAB323009C062B68
:100A800000F28380DFE803F0041B314462738200CC
:100A9000002300930B6843F004030B600B6803F022
:100AA0000403009302F500634FEAB323009C052B77
:100AB00000F26B80DFE803F003192C4A5B6A002325
:100AC00000930B6843F008030B600B6803F0080306
:100AD000009302F580634FEAB323009C042B54D8A3
:100AE000DFE803F003163445540000234FEAB22236
:100AF0000093032A0B6843F010030B600B6803F0AC
:100B000010030093009B40D8DFE802F00220314040
:100B1000002200920A6842F020020A600A6802F08D
:100B200020020092009A204A90422FD01F4A904201
:100B30001DD01F4A904228D100200090086840F044
:100B400040000860086800F0400028E000220092A1
:100B50000A6842F040020A600A6802F0400200920D
:100B6000009A114A904211D0104A90420DD10022B1
:100B700000920A6842F080020A600A6802F080026D
:100B80000092009A084A904200D018BD00200090C0
:100B9000086840F480700860086800F48070009075
:100BA000009818BD00ECFDBF00200240001C024070
:100BB0000018024086B000201849194C059000909A
:100BC0000A6842F002020A600A6802F00202009219
:100BD000009A0090086840F002000860086800F081
:100BE00002000090032004900120CDE9020000994A
:100BF000019001AD2046294600F0C8F88020294622
:100C00000190204600F0C2F82046012100F08AF948
:100C10002046802100F086F9F6E700BF3038024018
:100C200000040240B0B5044600F084F905460548CA
:100C3000611C007818BF044400F07CF9401BA042FE
:100C4000FAD3B0BD080000207047B0B50446006874
:100C500041F214014258520608D401440968C907F8
:100C600012D0204600F027F8012103E0204600F0D2
:100C700021F84021206841F214028150002184F8BB
:100C80004510012184F8441041F214054FF48031DD
:100C90004151405900040CD52046FFF7D5FF20688C
:100CA0004FF400414151002084F84500012084F8B0
:100CB0004400B0BD704770472DE9F04F934A4FF0A4
:100CC0000A0A4FF000094FF000089042904A08BF0E
:100CD0004FF0090A02444FEAB223092B38BF4FEA0A
:100CE000B22A8C4A01230F260027A2F57E7B102F03
:100CF00008BFBDE8F08F03FA07F20A4240D027F0A0
:100D0000030C09F00C05D2435BF80C4006FA05FE13
:100D10000AFA05F504EA0E04AC4214D17D4BBC0876
:100D20001D6815401D605D6815405D609D6815403B
:100D30009D60794B1D6815401D605BF8245025EAC5
:100D40000E054BF824500323056803FA08F46FF0EE
:100D50000303A543056009F01C0506FA05F503EA3F
:100D600057060644336AAB4333620F26C368A34376
:100D7000C36043681A40012342608268A2438260D4
:100D800009F1040908F102080137B0E72DE9FC4F29
:100D90005E4A0A244FF0010B4FF000084FF0000E9E
:100DA00090425B4A08BF092402444FEAB223092B50
:100DB00038BF4FEAB22400940022BEF1200F08BFD2
:100DC000BDE8FC8F0F680BFA02F6374200F0908006
:100DD0004F68122F00F292800BFA07F414F0061FEE
:100DE00000F08C8003234FEA420A03FA0EF4836872
:100DF000CD686FEA040CA34305FA0EF52B4383601C
:100E00003B0945689340B5432B434360C4688D68F4
:100E100004EA0C0405FA0AF52C43C46047F01004F8
:100E2000122C12D108F01C040F2303FA04F56FF002
:100E3000030303EA52070744D7F820900B6929EA15
:100E40000505A3402B433B624F68036807F003048A
:100E500004FA0AF403EA0C0323430360FB0047D5BA
:100E600000232E4C2B4F22F0030501932368BC4630
:100E70003D4443F48043236023680F2403F48043FC
:100E8000019308F00C03019F9C40254FB946EF5990
:100E900027EA0404009F07FA03F3234345F80930C7
:100EA000DCF800304D6843EA0604EF0358BF23EA3C
:100EB0000604CCF80040AF03DCF8043043EA060433
:100EC00058BF23EA0604CCF80440EF02DCF80830EF
:100ED000114F43EA060458BF23EA0604CCF8084041
:100EE000AD023B6843EA060458BF23EA06043C60AF
:100EF00008F104080EF1020E01325EE70323F24608
:100F000003FA0EF46FEA040C80E700BF00240240ED
:100F10000000FEBF003C01400C3C01404438024050
:100F200008FCFFFF42690A408A4208BF0904816148
:100F300070470000EF480068704700BF90F83D2000
:100F4000202A1CBF0220704724224DF808ED01F032
:100F5000BEFE5DF808EB23F010035362536A4DF8B0
:100F600008ED01F02FFE5DF808EB704710B590F822
:100F70003D20202A1CBF022010BD24224FF6F07411
:100F800089B201F0A4FE234001F01CFE10BD80B127
:100F900010B5044602F023F9204600F0A1F9002024
:100FA000206484F83D00206384F83C0084F83E000F
:100FB00010BD01207047006C704790F83D007047ED
:100FC000F8B530B3044690F83D0028B9002084F805
:100FD0003C00204600F085F902F001F9016841F477
:100FE00000410160016821F40041016000F0C2FA93
:100FF0003A4900253A4A88424FF0000138BF0121A2
:10100000904238BF01256368364A934238BF0D4687
:101010000DB10120F8BD34494FF47A77B0FBF1F5FA
:1010200021684E6826F03F062E434E604FF49676B8
:101030006E43934228BFB6FBF7F56A1C0D6A25F094
:101040003F052A434CF6FF750A62CA69AA43274D39
:10105000AB420AD85B000138B0FBF3F001306FF30C
:101060001F30042898BF042013E0A56801383DB163
:1010700019256B4302F00BF90AD000F5804004E01B
:1010800003EB430302F003F902D000F5004000E057
:101090000120104304F10C06C861E0690A6822F0DF
:1010A000C0021043226A104348F2FF320860886889
:1010B00090436CCE184310438860C86820F0FF004E
:1010C00028433043C86002F0DDF80020202120646E
:1010D00084F83D10206384F83E00F8BD80841E0033
:1010E00000093D00A186010040420F00A0860100DA
:1010F0002DE9FE431F4616460D4602F011F88146C3
:1011000001F00DFF09D1744920460122192301F095
:1011100087FE10B901F060FE02D10220BDE8FE8317
:1011200001F0B9FF01D102F0A8F8136823F40063BD
:10113000136022223B4601F0F6FF68493246608D7B
:10114000E162294620852046CDE9008900F01EFD98
:1011500008B102F0D7B8208D022806D001280AD0A5
:10116000002170B90291216808E002F02BF80A60B2
:101170000022029207E002F0BAF8029201F0DDFFCD
:1011800006E0029121684A690292896902910299F6
:101190001A4F01042CD080B203280CD802281ED08C
:1011A000012816D101F04EFF0028D2D12068616AD3
:1011B0000069087019E001F045FF0028C9D12068D6
:1011C000616A0069087001F0C2FFE2D50869107019
:1011D0000BE002F06EF80028BBD101F0EBFD02F04D
:1011E00068F80028B5D102F097F801F008FED0E7C2
:1011F000202084F83D00002001F047BF04000100DA
:101200002DE9FE43994616460F4601F089FF054633
:1012100001F085FE0AD130492046012219230095AC
:1012200000F084FD10B901F0D7FD02D10220BDE825
:10123000FE8301F030FF01D102F01FF8136823F4A0
:101240000063136021224B4601F06DFF23493246B3
:10125000608DE162394620852046CDE9008500F0A9
:10126000F7FC08B102F04EB8218D080422D02046C8
:1012700041462A4600F0F1FD10BB606A2268014633
:1012800011F8013B1361638D013B63856162238D1E
:10129000591E218556697607E7D509044FF00001EC
:1012A000E3D0417802301161991E6062218501F01E
:1012B000D1FEDAE7204641462A4600F01BFD30B158
:1012C000206C0428CED1206801F061FDCAE701F04E
:1012D00031FEBDE8FE8300BF020010000000FFFFEA
:1012E000704770471D48034900780A681044086039
:1012F000704700BF90D1002080B50948016841F4D3
:1013000000710160016841F480710160032000F008
:1013100063F80F2000F006F800F022F8002080BDEE
:10132000003C024070B50D4E04464FF47A7130789F
:10133000B1FBF0F094490968B1FBF0F000F0E4FA79
:1013400001250F2C08D838B94FF0FF302146002274
:10135000002500F01BF87460284670BD08000020CE
:101360007047000000280DD4734601F0A9FC9E468A
:10137000054A42EAD00020F003000160BFF34F8F1E
:10138000BFF36F8F704700BF80E100E0F0B5184BEE
:101390004FF0FF361C68C4F30224E51E84F00704F6
:1013A00038BF002506FA05F7BA43042C28BF0424E9
:1013B00006FA04F4A14300F00F04A940043C1143D1
:1013C000044A234409010244002848BF03F10C02E7
:1013D0001170F0BD00E400E005494FF6FF030A6814
:1013E0001A4060F30A22034810430860704700BFA8
:1013F0000CED00E00000FA057CB50020164E174DFC
:1014000001901448016841F080510160006800F0CB
:1014100080500190019801203060FFF78BFD044659
:101420002868C00305D4FFF785FD01F0D6FBF7D986
:101430000EE001207060FFF77DFD04462868800300
:1014400044BF00207CBDFFF775FD01F0C6FBF5D958
:1014500003207CBD4038024040000E420470004032
:101460002DE9F041002857D03F4B04468846D3F879
:10147000000400F00F00884204D283F8008401F0D9
:10148000B0FB49D12068810711D5410703D5996880
:1014900041F4E0519960010703D5996841F4604136
:1014A0009960A1689A6822F0F00211439960C00720
:1014B0002BD101F096FB04D983F8008401F091FB55
:1014C0002AD12068410705D5E1689A6822F4E052E4
:1014D00011439960000706D52069996821F460419D
:1014E00041EAC00098601C4600F054F8A1681F4A09
:1014F000C1F30311515CC840234908601C480068CF
:10150000FFF710FF0020BDE8F0816068811E02290E
:1015100005D21968890107D40120BDE8F0810128AE
:101520001DD119688903F7D599681D4621F003017B
:1015300008439860FFF7FEFC064641F28837606872
:10154000A9682B4601F00C01B1EB800FB1D0FFF779
:10155000F1FC801BB842F2D90320BDE8F081196884
:101560008907D9D5E0E700BF003802404E6C00087B
:101570000C00002004480549054A00680968C1F3C9
:101580008221515CC840704720000020083802408A
:101590005E6C000810B5134C606800F00C01124836
:1015A000082903D004291CD1104810BD21682368E4
:1015B00001F03F0221685B02C1F3881105D4A1FB51
:1015C00000010023FEF70EFE03E008484843B0FB8D
:1015D000F2F021680222C1F3014102EB4101B0FBAC
:1015E000F1F010BD043802400024F40000127A002B
:1015F0002DE9FC41002858D004460078BF4EC007B2
:101600000BD0B06800F00C00042840F087803068F0
:10161000800302D56068002847D02078800718D55D
:10162000B06810F00C0F07D001F03EFC40F08E8047
:101630007068400200F18A803068800702D5E06857
:10164000012832D12069316821F0F80141EAC00057
:101650003060207800072BD4207840073BD4A7695E
:1016600007B301F021FC40F0A280012F1DD0E169F9
:10167000706800F480028A4217D1216A00F03F02AC
:101680008A4212D147F6C071626A014091420CD180
:10169000A16A00F440328A4207D1E16A00F070602A
:1016A000884202D10020BDE8FC810120BDE8FC8118
:1016B0006169934800296AD00121C0F8801EFFF7B4
:1016C00039FC0546706F8007C6D4FFF733FC401B1A
:1016D0000228F7D9C9E0306C10F080580AD10020F8
:1016E0000190306C40F080503064306C00F08050DD
:1016F00001900198834F3868C0053AD4386840F4A7
:1017000080703860FFF716FC05463868C00530D495
:10171000FFF710FC401B0228F7D9A6E001F0C4FB3C
:1017200003D1706840023FF572AF6068B0F5803F4A
:1017300007D0B0F5A02F40F08280306840F48020C0
:101740003060306840F48030306082E0E06800282B
:101750004CD06B4801210160FFF7ECFB0546306877
:1017600080073FF56FAFFFF7E5FB401B0228F6D976
:101770007BE0A068012805D0052848D1306F40F0F3
:1017800004003067306F40F00100306749E000210D
:10179000C0F8801EFFF7CEFB0546706F80077FF50F
:1017A0005BAFFFF7C7FB401B0228F6D95DE0544949
:1017B000002088460866FFF7BDFB0546022F0AD1C8
:1017C00047463068800153D5FFF7B4FB411B032027
:1017D0000229F6D967E7306880017FF563AFFFF72C
:1017E000A9FB411B03200229F5D95CE744480021ED
:1017F0000160FFF79FFB0546306880077FF529AF42
:10180000FFF798FB411B03200229F5D94BE7316F05
:10181000002821F001013167316F21F004013167A7
:1018200045D0FFF787FB054641F28837306F8007C8
:101830004CD4FFF77FFB401BB842F7D915E0316865
:10184000002821F480313160316821F48021316039
:1018500045D0FFF76FFB0546306880033FF5DDAEEE
:10186000FFF768FB401B6428F6D90320BDE8FC8124
:101870001C341FCC0843D90340EA82104FF6FF7294
:10188000914340EA0460A1F5803108437060012073
:101890003866FFF74FFB0446306880013FF502AF22
:1018A000FFF748FB011B03200229F5D9FBE6FFF7F0
:1018B00041FB054641F28837306F800706D5FFF7B8
:1018C00039FB411B0320B942F6D9ECE6B8F1000F11
:1018D0007FF4C5AE306C20F080503064BFE6FFF777
:1018E00029FB0546306880037FF597AEFFF722FBA2
:1018F000411B03206429F5D9D5E600BF003802401A
:101900000000474200700040411E0020B0EB116F04
:101910001CBF01207047044AF023516003490B703B
:10192000072190601160704710E000E023ED00E0B7
:10193000044A00204FF00113C1E902200020C1E950
:10194000003270470000484110B5044690F8290065
:10195000012805D094F82A0020B1012084F829003C
:10196000002010BD01F04FFB0028F6D001F0E5B9D2
:1019700070B586B000F11C0501AE0C462846314614
:1019800002F01BFDC0B9311D284602F02AFD98B9AE
:1019900006F10801284602F01AFD68B906F10C01AB
:1019A000284602F028FD38B90020ADF8140005A93A
:1019B000284602F02AFD18B14FF0FF3006B070BD86
:1019C00001F051F9B8EEC33A01EE034A9FED0B1A4C
:1019D00084EE000AB5EE400AF1EE10FAB8BFB0EEA0
:1019E000410A9FED071AB4EE410AF1EE10FAC8BFA2
:1019F000B0EE410A84ED000A0020DFE7000000009D
:101A00000000C842B0B5044690F8280020B101207B
:101A100084F828000020B0BD04F11C0500212846F0
:101A200002F0FFFC58B92846012102F097FC30B9BA
:101A3000B7EE000A204600F02DF80028E7D04FF05E
:101A4000FF30B0BD80B51C3002F0B1FC002818BFDB
:101A50004FF0FF3080BD0000A8B110B50B4A4062C6
:101A600002620B4AC26191E81C0080E81C000B7BFB
:101A700003730B6903614B69896943618161BDE847
:101A8000104002B110474FF0FF307047A9330008F3
:101A9000D140000880B5B1EE0C1A0321B4EE410A22
:101AA000B7EE001AF1EE10FAB4EE410AD8BF0221E7
:101AB000F1EE10FAD8BF01211C3002F060FC0028C2
:101AC00018BF4FF0FF3080BD10B5044690F82A00D3
:101AD000012805D094F8290020B1012084F82A00BB
:101AE000002010BD01F08FFA0028F6D001F025B9D2
:101AF00070B586B000F11C0501AE0C462846314693
:101B000002F0A0FCC0B9311D284602F0AFFC98B924
:101B100006F10801284602F09FFC68B906F10C01A5
:101B2000284602F0BDFC38B90020ADF8140005A924
:101B3000284602F0CFFC18B14FF0FF3006B070BD60
:101B400001F091F80020B8EEC33A01EE034A84EEAA
:101B5000000A84ED000AF1E7FEE7026851694905D1
:101B60004FF000010FD56FF48063536120220163B1
:101B700080F83D2080F83E1080F83C10016C41F068
:101B80000401016401210846704700002DE9FC476B
:101B9000044600680E46DDF82890DDF82C801D46CE
:101BA0001746002201684B4641F48061016001F054
:101BB000DDF948B120680068C00544BF4FF40070EB
:101BC00020640320BDE8FC8706F0FE0A2068484E2A
:101BD0004A464346C0F810A02046314600F0E0F8DF
:101BE000E8B90020424601F05FFB49468069019058
:101BF0000198204600F031F958B92068012D04D031
:101C0000390A01F014FB20B92068F9B201F00FFB8A
:101C100040B1206C042802D1206801F0B8F80120FE
:101C2000BDE8FC87206800224B4601F09FF90028A0
:101C3000C0D120684AF001014A464346016120466E
:101C4000314600F0ADF8002818BF0120BDE8FC8740
:101C50002DE9FE43044600680E460A9D0B9F9946F7
:101C60009046002201682B4601F051FA48B12068E5
:101C70000068C00544BF4FF4007020640320BDE835
:101C8000FE83206806F0FE012A463B4601611849A2
:101C9000204600F085F808B101F034BB00203A4638
:101CA0000290206841690291294680690290029859
:101CB000204600F0D2F830B1206C0428ECD1206826
:101CC00001F065F8E8E72068B9F1010F0AD04FEAA2
:101CD00018213A4601612046294600F0BEF8002846
:101CE000EAD120685FFA88F101610020BDE8FE8337
:101CF00002000100F8B515460E4604464F1C206848
:101D00004069400744BF0020F8BD2046FFF725FF8B
:101D100050B9002FF3D0FFF70DF9401BB04201D8A6
:101D2000002EECD101F0CBF90120F8BD2DE9F047F0
:101D3000DDF820901D46924680468FB201F47F0464
:101D40005E1C1820B4F5803F08BF1420D8F800109E
:101D500008583840C01BB0FA80F0400950451CD1EB
:101D6000002EEED0FFF7E6F8A0EB0900A84201D85C
:101D7000002DE6D100202021C8F8300088F83D1061
:101D800088F83E0088F83C00D8F8400040F0200079
:101D9000C8F840000120BDE8F0870020BDE8F087CA
:101DA0002DE9F0419846164604468FB2551C20682E
:101DB00041693940B9420ED0416949050ED4002D20
:101DC000F5D0FFF7B7F8A0EB08012020B1420BD8FF
:101DD000002EECD108E00020BDE8F08100F0D7FF34
:101DE0006FF480614161042000212022216384F886
:101DF0003D2084F83E1084F83C10216C0843206498
:101E00000120BDE8F08170B515460E4604462068F5
:101E10004169490644BF002070BD4169C9060ED41E
:101E2000FFF788F8401BB04201D8002EEFD1002008
:101E30002021206301F0A9F940F0200007E06FF0B5
:101E40001001416100202021206301F09EF92064EF
:101E5000002084F83C00012070BDF8B515460E4600
:101E600004464F1C20684069000644BF0020F8BDAE
:101E70002046FFF772FE50B9002FF3D0FFF75AF853
:101E8000401BB04201D8002EECD101F018F901201E
:101E9000F8BD10B5044690F8290001280FD094F839
:101EA000312094F8301094ED0B0A204600F0C8F869
:101EB00010B14FF0FF3010BD012084F82900002040
:101EC00010BDBFB5054600200C46019002A928466A
:101ED00000F032F820B901A9284600F063F818B1E3
:101EE0004FF0FF3004B0B0BDBDF90800BDF90A10D5
:101EF000BDF90C209DED011A00EE100A02EE101A39
:101F000003EE102A0020B8EEC00AB8EEC22AB8EEDE
:101F1000C33A21EE000A21EE022A21EE031ABDEE99
:101F2000C00ABDEEC22ABDEEC11A84ED000A84EDDE
:101F3000012A84ED021AD5E7BFB500F11C050C4655
:101F40000DF10701284602F0A9FF20B902A9284691
:101F500002F010FF18B14FF0FF3004B0B0BD9DF893
:101F600007104FF0FF301B29F7D8012202FA01F1C8
:101F70002A4A114201D0042003E011F0013FECD0C5
:101F80001020BDF90810BDF90C2091FBF0F1218063
:101F9000BDF90A1091FBF0F192FBF0F0A080002057
:101FA0006180DAE7BCB500F11C050C460DF10701B4
:101FB000284602F054FF28B90DF10601284602F028
:101FC0006DFF10B14FF0FF30BCBD9DF806104FF013
:101FD000FF30BFEE000A1B291CD8012202FA01F1D2
:101FE0000E4A114205D09DF80700032810D80CA115
:101FF00007E011F0013F0DD09DF80700042807D23B
:102000000BA140B201EB800090ED000A002001E03E
:102010004FF0FF3084ED000ABCBD00BF1E0E1E0E47
:1020200023DB793E23DBF93E23DB793F23DBF93FDA
:1020300023DB793F23DBF93F23DB794023DBF940C6
:102040002DE9F0412DED028B0646481E90460C46C8
:10205000032809D8DFE800F002161C220327B8F194
:10206000010F08BF13271FE00427B2EE098AB8F159
:10207000010FB4EE480A08BF1427F1EE10FA1CDA7B
:10208000022154E00227B8F1010F08BF12270BE02C
:102090000127B8F1010F08BF112705E0A8F10100E1
:1020A000B0FA80F0400907019FED2D8AB4EE480A8E
:1020B000F1EE10FA01DD062139E09FED2A1A00F059
:1020C00026FE25DDB2EE091A00F021FE22DDB3EE78
:1020D000091A00F01CFE1FDD9FED231A00F017FE09
:1020E0001CDD9FED221A00F012FE19DD9FED1C1A77
:1020F00000F00DFE16DD9FED1E1A00F008FE13DD48
:102100009FED1C1A092100F002FED8BF08210CE047
:1021100001210AE0022108E0032106E0042104E095
:10212000052102E0062100E00721B0EE408A06F119
:102130001C05284602F04DFE20B92846394602F01B
:10214000DDFE28B14FF0FF30BDEC028BBDE8F08121
:10215000002086F8318086F8304086ED0B8AF3E760
:1021600000004843CDCCCC3F000048420000C842AC
:102170000000C843000048440122002010230A70D8
:10218000054AC1F801004860C1E902308861C1E92F
:1021900004020020704700BF0000C844B0B500F141
:1021A0001C0504460121284602F0F3FDE0B928464B
:1021B000012102F0FEFDB8B92846002102F039FEE7
:1021C00090B92846042102F099FE68B90020002148
:1021D00020863648E062284602F0FBFD20B92846FA
:1021E000002102F046FE10B14FF0FF30B0BD0120DB
:1021F00084F828000020B0BD80B51C3002F015FE28
:10220000002818BF4FF0FF3080BD000010B5B0B1FE
:10221000044615488B68646220621448A360E0613C
:10222000D1E90020C4E90020087B207308692061FF
:10223000486960618869A0610AB1904710B14FF0A8
:10224000FF3010BDA068022802D194F8280008B120
:10225000002010BD20462121052200F009F80028A9
:1022600018BF4FF0FF3010BD99330008C14000087F
:10227000E0B58DF807201C300DF10702012302F0B4
:102280006EFE002818BF4FF0FF308CBD10B5074818
:10229000002232234FF48034C1E90042C1E9022315
:1022A000C1E904228861002010BD00BF0000C842BF
:1022B000BCB504468068032822D16A4620466221C4
:1022C00000F009FE90BB01AA00F02EFD70BB9DF846
:1022D00000006A46622100F0ED0010308DF8000029
:1022E0009DF8040000F0F0000E308DF8040000F0BE
:1022F0008DFFD8B901AA2046602100F048FA14E009
:1023000004F11C050121284602F02DFE70B9284673
:10231000022102F06CFE48B92846032102F033FE88
:1023200020B92846002102F078FE10B14FF0FF30AE
:10233000BCBD012084F828000020BCBD1CB50446AB
:1023400090F82900012801D100201CBDA0680328B5
:102350000ED101AA00F0E8FC80B99DF804006021CC
:1023600000F0FC008DF8040001AA00F04FFF04E02B
:1023700004F11C00002102F03AFE08B100F0B1BEE9
:10238000012084F82900DFE71FB50C468168032986
:102390000DD10DF10A026821062300F065F958B944
:1023A000BDF80E20BDF80C10BDF80A000DE01C3081
:1023B00001A902F012FE10B14FF0FF3029E0BDF884
:1023C0000820BDF80610BDF8040012B209B200B230
:1023D000B7EE081A03EE100A00EE102A02EE101AE9
:1023E0000020B8EEC00AB8EEC22AB8EEC33A20EE1A
:1023F000010A22EE012A23EE011ABDEEC00ABDEE4B
:10240000C22ABDEEC11A84ED001A84ED012A84EDC2
:10241000020A04B010BD80B50A468168032903D1C1
:102420004F2100F058FD03E01C30114602F0BFFDC3
:1024300010B14FF0FF3080BD002080BDB0B5C0B1FD
:10244000044619488B68254664622062D1E9002061
:10245000A360C4E90020087B2073086920614869F3
:1024600060618869A061114845F81C0F0AB1904766
:1024700010B14FF0FF30B0BDA06810B194F8281033
:1024800009B10020B0BD0328FBD0012805D12046AA
:102490006221342200F00CF803E02846012102F00A
:1024A0008CFD0028E5D1ECE75F3300088740000889
:1024B000E0B58DF807208268032A04D10DF10702E8
:1024C00000F065F904E01C300DF1070200F0C3FBD9
:1024D00010B14FF0FF308CBD00208CBD04480022AD
:1024E00040F20113C1E90032C1E902000020704747
:1024F00000004843B0B5044690F8280020B1012000
:1025000084F828000020B0BD04F11C0511212846E4
:1025100002F010FE98B92846102102F0BEFD70B9F5
:102520002846002102F022FE48B92846012102F087
:102530009CFD20B92846012102F087FD08B100F07A
:10254000E0BD032084F82B00D9E710B5044690F8CD
:102550002900012807D000F065FD08B100F00DBE8C
:10256000012084F82900002010BD1CB50C46002174
:102570001C30019101A902F011FE08B100F0BEBCAF
:10258000019802F0CBFD002084ED000A1CBD80B54F
:102590001C3002F0B3FD002818BF4FF0FF3080BDA3
:1025A00010B5B0B1044615488B68646220621448C7
:1025B000A360E061D1E90020C4E90020087B20731A
:1025C00008692061486960618869A0610AB1904723
:1025D00008B100F0D2BDA068022802D194F828000A
:1025E00008B1002010BD20461021012200F02EF875
:1025F000002818BF4FF0FF3010BD00BFC9330008DE
:10260000F140000810B5044690F82A00012807D0D0
:1026100000F008FD08B100F0B0BD012084F82A00E8
:10262000002010BD1CB50C4600211C30ADF8041074
:1026300001A902F0C0FD08B100F060BCBDF90400C2
:1026400002F060FD002084ED000A1CBDE0B58DF8AD
:1026500007201C300DF10702012302F0B3FD002812
:1026600018BF4FF0FF308CBDF0B585B08DF813105A
:10267000402100F11C0615461C468DF80E300DF168
:10268000120201238DF81210002130468DF811102E
:102690003D218DF8101044218DF80F10012102F01A
:1026A000D0FCE8BB04AA3046152100F0D4FAB8BB30
:1026B0000DF113023046162100F0CDFA80BB0DF16A
:1026C0000E023046172100F0C6FA48BB0DF10F028A
:1026D0003046142100F0BFFA10BB0DF11102304654
:1026E000012100F0B8FAD8B90DF10D0230461021E1
:1026F00000F082FCA0B99DF80D0010B940208DF8C3
:102700000D000DF10D023046102100F0A4FA38B989
:102710000DF1060230462921062302F07BFC18B198
:102720004FF0FF3005B0F0BD03AF30461E213A46F2
:1027300000F062FC0028F3D19DF80C00C007F4D033
:1027400003AF304639213A4600F056FC0028E7D165
:102750009DF80C00C007F4D00DF1120230460121A3
:1027600000F079FA0028DBD1304602212A462346C0
:1027700002F050FC0028D3D10DF1110230460121A6
:1027800000F069FA002818BF4FF0FF30CAE7BFB564
:102790008DF80F10402100F11C0415463C22012346
:1027A0008DF80E1000218DF80C200DF10E02204640
:1027B0008DF80D108DF80B1044218DF80A100121B1
:1027C00002F03FFC002843D103AA2046152100F067
:1027D00042FAE8BB0DF10F022046162100F03BFA49
:1027E000B0BB0DF10B022046172100F034FA78BB84
:1027F00020460E212A4600F02EFA48BB0DF10A02AF
:102800002046142100F027FA10BB0DF10D022046DE
:10281000012100F020FAD8B90DF10902204610215B
:1028200000F0EAFBA0B99DF8090010B940208DF82E
:1028300009000DF109022046102100F00CFA38B908
:102840000DF1020220462921062302F0E3FB18B114
:102850004FF0FF3004B0B0BD02AD20461E212A4625
:1028600000F0CAFB0028F3D19DF80800C007F4D09F
:1028700002AD204639212A4600F0BEFB0028E7D1F0
:102880009DF908100020B1F1FF3FF2DCE2E770B5DE
:10289000044690F8290080B104F11C0604F12B01D4
:1028A000304602F0AFFD28B930460021002502F085
:1028B000B7FD20B14FF0FF3503E0002501E084F8BB
:1028C0002950284670BD10B5044690F8290001280B
:1028D0000BD094F82B1004F11C0002F0A1FD08B1FC
:1028E00000F0B5BB012084F82900002010BDBFB561
:1028F00000F0B4FB05F11C0002A902F067FC20B94E
:1029000001A9284600F008F818B14FF0FF3004B0D4
:10291000B0BD00F040FBFAE71CB50C461C300DF1D1
:10292000070102F0BAFD30B99DF90700032802D86B
:1029300002A100F055BA00F004BD00BF23DB793DD1
:1029400023DBF93E23DBF93D23DB793E10B504465A
:10295000FFF79DFF18B9204600F009F808B100F014
:1029600076BB002084F82800A4F82B0010BD70B5B9
:10297000044690F82A0080B104F11C0604F12C01F1
:10298000304602F08EFC28B930460021002502F0C6
:102990009BFC20B14FF0FF3503E0002501E084F8F7
:1029A0002A50284670BD10B5044690F82A00012828
:1029B0000BD094F82C1004F11C0002F085FC08B137
:1029C00000F045BB012084F82A00002010BDBFB5EF
:1029D0000C4605461C3002A902F002FC20B901A9F0
:1029E000284600F009F818B14FF0FF3004B0B0BD30
:1029F00000F0D1FAFAE700001CB50C461C300DF1CE
:102A0000070102F09FFC48B99DF90700C1B20629F1
:102A100004D8572222FA01F1C90701D100F091BC74
:102A200001A100F0DDB900BF00000C4100008C40A6
:102A300000008C4100008C4000000C4200008C40E3
:102A400000008C42B0B50020074A10234FF4FA640E
:102A500040F20115C1E9023088610020C1E900544B
:102A6000C1E90422B0BD00BF0020D045B0B500F1DF
:102A70001C0504468021284602F086FC40BB2846FF
:102A8000012102F0B7FB18BB2846012102F0C1FB6F
:102A9000F0B92846002102F0CFFBC8B9042000217C
:102AA00084F82B00284602F0BBFC88B92846002198
:102AB00002F0FCFC60B90420002184F82C002846B8
:102AC00002F002FC20B92846062102F04DFC10B1AC
:102AD0004FF0FF30B0BD012084F828000020B0BDC9
:102AE00080B51C3002F0A4FB002818BF4FF0FF3067
:102AF00080BD000010B5B0B1044615488B68646213
:102B000020621448A360E061D1E90020C4E90020FC
:102B1000087B207308692061486960618869A06149
:102B20000AB1904708B100F092BAA068022802D119
:102B300094F8280008B1002010BD204612210C2274
:102B400000F00AF8002818BF4FF0FF3010BD00BF9A
:102B500089330008B1400008E0B58DF807201C302B
:102B60000DF10702012302F049FC002818BF4FF0C5
:102B7000FF308CBD70B5044600204FF480410E4AF2
:102B80000E4BC4E90200C4E90410C4E90600206247
:102B90002046C4E90032FEF713FA0546204600211C
:102BA000FEF7CCF9064620460021FEF7DFF9304358
:102BB000284318BF012070BDA086010000540040CA
:102BC000FEE7704719435162116841F0010111603D
:102BD000202180F83D1000207047001BB0F57A7F5F
:102BE0007047D3F8000400F00F004045704741ECF7
:102BF000100B48460221504701900198CDF80490EF
:102C00002068704707200890002007900120069058
:102C1000704701466FF00600002970470D460146D7
:102C20004FF48050CDE900230123029070474DF806
:102C300008ED0123044602F0DEFB00285DF808EBF6
:102C400070474DF808ED0123044602F085F900288D
:102C50005DF808EB7047012302F0F3B90446D0E9B0
:102C600001600D4670479DED010A9DED043A9DED12
:102C7000021A9DED032ABDF9140023EE004A30EE3E
:102C8000420A02EE414A31EE431A03EE100A70473F
:102C9000BDF9061000EE101AB8EEC00A84ED000A65
:102CA000BCBD4DF808ED0123044602F081FA00286E
:102CB0005DF808EB7047B4EE408AF1EE10FA704709
:102CC00000F01F010122C0B202FA01F1704780F842
:102CD0003D200268136823F001031360536A7047B4
:102CE00010EE100AFDF711BC2146CDE90165CDE9D2
:102CF0000358384701AA07CA07C4002070474DF897
:102D000008ED02F078FB00285DF808EB7047B4EEA0
:102D1000410AF1EE10FA70474DF808ED02F01CF987
:102D200000285DF808EB7047204660210123FFF77B
:102D30009BBCD0E901500C4670474FF0FF3010BDEE
:102D4000D0E901500C4670478DF80400A068704728
:102D5000012300F07F0040EAC51025688DF80400CB
:102D6000A06870479DF8041005F00100012301F0F0
:102D7000BF0141EA801070474DF808ED022302F0D0
:102D800017FABDF80E1021805DF808EB1CBD016834
:102D900041F40071016070479DF8041005F00100D6
:102DA0002568012301F0F70141EAC0007047622164
:102DB000012330472068616A026822F48062026061
:102DC00000690870606A01306062208D01382085DA
:102DD000608D01386085704794F83C000128704789
:102DE00051F82000206000201CBD012302F0B4B87F
:102DF000BDF8021021800199C4F80210BCBD606AC0
:102E000001306062208D01382085618D0139618536
:102E100070479DF804109DF80320B4EE001A704727
:102E2000CDF80090FEF782BF602101233047287063
:102E3000204602F0D0BA9DF8041005F00100256884
:102E4000012301F0FB0141EA80007047012302F0F9
:102E5000AFB99DF804009DF80510820842EA5002BF
:102E600042EAD00242EA101242EA501242EA9012BA
:102E700042EA510242EA910242EAD10242EA1112C6
:102E800042EA511242EA9112024308430A4302F015
:102E9000010242EAD010012870479DF8041005F0A5
:102EA0000300256801237047B06800F00C00082873
:102EB00070476FF0010070472046FEF77CB84DF870
:102EC00008ED204602F09AFA5DF808EBBCBD8DF8DB
:102ED0000400A06870470123FFF7C6BB9DF80410EB
:102EE00005F001002568012301F0EF0141EA00101F
:102EF00070470446D0E901600D4670474FF0FF303F
:102F00001CBD9DF8041005F001002568012301F0A7
:102F1000EF0141EA001070474FF0FF301CBD94F8FC
:102F20003D00202870479DF8041005F00100256839
:102F3000012370472068016841F40071016020207E
:102F400084F83D00002084F83C0084F83E0070477F
:102F50008DF80000A06828479DF8041005F00100D6
:102F6000012301F0FB0141EA80007047016841F450
:102F70008071016020464FF00111CDF80080FEF70E
:102F8000D5BE8DF8200000200790704701466FF0F5
:102F9000030004297047BDF90800BDF90A10BDF906
:102FA0000C209DED011A00EE100A02EE101A03EE3D
:102FB000102A0020B8EEC00AB8EEC22AB8EEC33A12
:102FC00021EE000A21EE022A21EE031ABDEEC00A0C
:102FD000BDEEC22ABDEEC11A84ED000A84ED012ABD
:102FE00084ED021A70474DF808ED204602F006FA0B
:102FF00000285DF808EB7047012302F00BB88DF84C
:103000000400A068704704F11C00012101F009BA16
:10301000012300F07F0040EAC51025688DF8040008
:10302000A068704794F82B1004F11C0002F035B82A
:1030300008EB0502012381B2387B2047D0E901501B
:103040000C467047204641464A46FEF7DCBE4FF02C
:10305000FF3010BD608D0138608570470546002047
:103060000C4601907047012300F03F0040EA8510B4
:103070008DF8040070479DF8041005F0030001234B
:1030800001F0F30141EA8000704784F83C0084F8C5
:103090003E00BDE8FE8301220DF1280884F83C20A3
:1030A000226898E803011368DB0770479DF8041055
:1030B00005F00700012301F0F801084470470020E3
:1030C0002021206384F83D1084F83E0084F83C0001
:1030D000206C40F020002064704701304FF0000069
:1030E00070474FF0FF301CBD9DF80710B6EE001A78
:1030F00000EE101AB8EE400A20EE010A84ED000A34
:10310000BCBD4FF0FF30B0BD03210123304741F477
:103110008071016020464FF001110097FEF706BE56
:103120000446FDF707BF84F83D20402284F83E2086
:10313000002222646185606270474A6902928A694E
:103140000292029A0A6842F400720A607047608D27
:1031500001386085606A2168421C208D62620138F6
:1031600020854B695B0770478DF8300000200B907D
:1031700070478DF80400A06870474FF0FF3010BD15
:103180000446D0E901600D46704784F83D1084F88C
:103190003E00206C70479DF8041005F003000123E9
:1031A00001F0E70141EAC00070479DF8041005F006
:1031B0000700012301F0F10141EA400070470123BB
:1031C00002F019B921680A6822F480620A600A686C
:1031D00042F40062704712218DF8040070472420E9
:1031E00084F83D002068016821F00101016070470A
:1031F0009DF804204FF0FF31002301EB12110B2941
:1032000070472A46041D2046FDF7FABF2046FFF707
:10321000BEBA9DF8041005F003002568012370472D
:10322000BDF8021021800199C4F802101CBD42466D
:10323000016120464946FEF710BE2A46041D20467D
:10324000FDF756BF0D460221044602F0C4B89DF8B2
:10325000041005F001002568012301F0DF0141EAB7
:10326000401070479DF8041005F001002568012307
:1032700001F0FB0141EA80007047136843F001034D
:1032800013607047086840F0010008607047B0FBA9
:10329000F3F001306FF31F30002870479DF80410E1
:1032A000C1F3810121701CBD019020684169019129
:1032B00070472046394600224346CDF80090FEF77D
:1032C00035BD00EE101AB8EEC00A20EE010A84EDFA
:1032D000000A7CBD9DF807309DF806209DF805107A
:1032E0001B0643EA024242EA012121601CBD21681B
:1032F0000A6822F480620A60002270479DF8040088
:10330000002170470120BDE8FE839DF80410C1F341
:1033100042010139052970472068616A026842F458
:103320000072026000690870608D01386085616A12
:1033300020684A1C6262228D013A22850069487029
:1033400070474FF0FF301CBD4DF808ED012301F030
:1033500003FE9DF80C105DF808EB7047704710B540
:103360008468032C09D0002C047BD0F814C014BF4F
:1033700041F0400141F0800102E0047BD0F814C02C
:103380002046BDE81040604710B5047BD0F814C05B
:103390002046BDE81040604710B5047BD0F814C04B
:1033A0002046BDE810406047B0B584684025002C39
:1033B00008BF6FF07F05047BD0F814C02943C9B261
:1033C0002046BDE8B040604710B5047BD0F814C07B
:1033D0002046BDE8104060472DE9F8430746806865
:1033E00010B10020BDE8F883994690460E460025AE
:1033F000A945F6D0A8197C69FFF71AFE0135002807
:10340000F6D04FF0FF30BDE8F88300204FF0844243
:103410000123C1E90030C1E9022000207047B0B5A6
:10342000044690F8280020B1012084F828000020EC
:10343000B0BD04F11C050121284602F0D7FA68B995
:103440004FF07E500321E062284602F0ECFA28B9E2
:103450002846802102F000FB0028E5D04FF0FF3025
:10346000B0BD1CB50C461C3001A902F099FA08B198
:10347000FFF752BD9DF80500207000201CBD000024
:10348000A8B110B50B4A406202620B4AC26191E8D2
:103490001C0080E81C000B7B03730B6903614B6904
:1034A000896943618161BDE8104002B110474FF066
:1034B000FF307047D93300080141000810B50446B9
:1034C00090F8290001280BD094ED0B0A204600F05B
:1034D0001BF810B14FF0FF3010BD012084F8290017
:1034E000002010BD1CB50C461C300DF1060102F089
:1034F000F3FA08B1FFF710BDBDF9060002F06AFA51
:10350000002084ED000A1CBD10B52DED067B00F1F6
:103510001C040DF10701B0EE408A204602F076FA55
:1035200020B14FF0FF30BDEC067B10BDB3EE009A2A
:10353000B4EE498AF1EE10FA09D19DF8070003288C
:1035400005D12046012102F06EFA0028E9D19FED55
:103550002C0AFFF7B0FB0BD19DF8070040F00200EA
:10356000032805D12046002102F05DFA0028D8D1B9
:103570009FED240AFFF79FFB2ADDB4EE000AFFF758
:103580009AFB27DDB5EE000AFFF795FB24DDB6EECA
:10359000000AFFF790FB21DDB7EE000AFFF78BFB77
:1035A0001EDDB0EE000AFFF786FB1BDDB1EE000A60
:1035B000FFF781FB18DDB2EE000AFFF77CFB15DD9B
:1035C0000921B4EE498AF1EE10FAD8BF08210EE0C5
:1035D00000210CE001210AE0022108E0032106E0BD
:1035E000042104E0052102E0062100E00721204635
:1035F00002F032FA002818BF4FF0FF3093E700BF07
:10360000000000420000803D7047FDF76BBE0000E7
:1036100010B50E480F4CD0F8801041F47001C0F87E
:1036200080100B490A6842F001020A6000228A6099
:103630000B6823400B60084B4B600B6823F480231E
:103640000B60CA604FF00061016010BD08ED00E042
:1036500000380240FFFFF6FE1030002400F0BCB836
:1036600040F2396070470020704700005848406AB7
:10367000704700BFB0B55648C17A89075CBF0020CB
:10368000B0BD90F8352001211AB9114A126821EA1B
:10369000921142798379C479057A02F0010241EAF4
:1036A000420103F0010241EA820104F0010241EA11
:1036B000C20105F0010241EA0211427A807A02F069
:1036C000010200F0010041EA421141EA8010B0BD60
:1036D000004800403E48806A704700BF014800F043
:1036E00019BB00BFA06C0008B0B5394DE97AC90715
:1036F00013D10021C5E90001E960C5F8071005F103
:1037000014002421FCF7A6FD324C2046FDF77AF97F
:103710002046FDF777F90120E8720020B0BD00BF18
:1037200000F0F8BB00F052BC00F084BC032884BF5A
:103730006FF004007047811E02293CBF6FF0030048
:103740007047012800D040B92148006920F40030BA
:10375000002818BF4FF0FF3070470020704700BFAF
:10376000B0B5A0B199B114468AB1194A0546D07ACC
:1037700040074FF0FF3009D5D368022B06D1032054
:1037800010630846214600F021FC18B1B0BD6FF06F
:103790000400B0BD28462146BDE8B04000F04ABC58
:1037A000B0B50B4DE87A800702D5002000F0B2FBDF
:1037B000084C4FF480712046FDF77EFA20464FF406
:1037C0000071FDF779FA0020E8720020B0BD00BF5B
:1037D000B8000020000C02402DE9F04F89B0DFF85E
:1037E00094680C46F17A8A0702D44FF0FF353CE228
:1037F0006FF0140252FA80F2052A13D80FF2040077
:10380000DFE802F0033B49526379002C00F0868028
:10381000F068D94C042800F0BD80062800F0CA806A
:103820000220B8E0717996F83520114339D14FF074
:10383000FF3151FA80F1132900F22981C7B26FF0EC
:1038400006054FF0000ADFE811F013011002100224
:1038500014000C0110012201220122012201220187
:1038600022012201220122012501270144015201E6
:103870006F014FF0080A0427FAE0F068BE4F002CF1
:1038800064D0042800F09F80062800F0AC8002205D
:103890004FF400719AE0002C66D096F835000028AD
:1038A0006FD06FF00105E0E1B348C16821F0C001BD
:1038B000C16096F8351029B1B049013902D00268CB
:1038C0005206FAD50025B586CFE10025AA487571C4
:1038D000C16821F02001C160306B022840F0C58131
:1038E00096F83500002800F0BF811820002109B0AB
:1038F000BDE8F04F70E7A048C16821F0E001C16069
:1039000096F8351029B19D49013902D00268520656
:10391000FAD5002586F835507571A6E101F0F7005B
:103920000025F0729448C16821F00801C160F16877
:10393000062900F09A81012100F5E230CDE9075512
:10394000CDE905514FF48071049186E0FA680228B0
:103950006DD122F00800F86001F0E700F072F8681D
:1039600020F00400F8606DE096F83400002500288F
:1039700000F07B818048B586C16821F08001C1607C
:1039800073E140F20110B086DF48C16841F0810167
:10399000C16069E1122007210891002107910121EE
:1039A000CDE905014FF48070049004F5E23004A9DC
:1039B000FDF7ECF9F07A40F00800F072E06840F0B2
:1039C0000800E06050E112204FF480710722CDE939
:1039D000041007F5E23008920022079201220692B5
:1039E00004A9FDF7D3F9786940F0010078613869DE
:1039F00040F040003861F86840F01000F860F86866
:103A000040F02000F860F07A40F01001F172F9689F
:103A100041F00401F960F168022940F0258140F08D
:103A20001800F072F86840F00800F8601CE101F03E
:103A3000EF0140F00200F17222F004010628F96063
:103A400000F0128100250120CDE905504FF40070EF
:103A5000CDE90755049007F5E23004A9FDF796F982
:103A600003E14FF0020A052702E04FF0200A062783
:103A700010F4E06165D0B1F5807F71D0B1F5E06FF1
:103A800071D110F440516ED0002200235FE06FF03E
:103A90000305EAE0F485E7E0F06805287FF4A5AEC9
:103AA000002C00F0E180984D686940F004006861E6
:103AB000FDF760FD9549B1FBF0F10120B0F5807F85
:103AC0003FF493AE00FB01F2A24200F2C880013045
:103AD000F4E7F06806287FF488AEFF2C3FF685AE49
:103AE0008948816921F47F4121438161BCE0F0680C
:103AF00006287FF47AAE622004FB00F5662044437A
:103B0000FDF738FD8149B1FBF0F0C82141430120A8
:103B100040283FF46AAE01FB00F2A24202D2AA4260
:103B200000F296800130F3E7F06806287FF45DAE7E
:103B3000002C00F099807448416941F01001416106
:103B400092E010F440511BD020234FF48052B1F585
:103B5000005F0BD0B1F5805F0BD142F4A06515E09A
:103B600010F4405F0FD06FF008057EE042F4E0658E
:103B70000CE06FF0090578E000480040A1860100E4
:103B80000023002502E04FF480552023C0F381314B
:103B9000DFE801F00A02050803F5005304E003F52D
:103BA000405301E003F5805310F4403F02D06FF022
:103BB0000B055AE0CDE90153554DA8470390A8479E
:103BC000A94619254FEA84086843B0FBF8FBC847AB
:103BD00068434A464FF064093221B0FBF8F0B0FB6D
:103BE000F9F000FB19B001EB00100399B0FBF9F0FC
:103BF0006943B1FBF8F100F00F00B1FBF9F140EAC5
:103C0000011B1FFA8BF5904700016621B0FBF5F010
:103C100061436FF00705000900FB09F0884224D2D8
:103C200062216143884220D9374CE06820F400507B
:103C3000E0600020042FC6E90370C4F808B018D073
:103C4000019D062F1ED1072008900020079028E034
:103C50002D498A6922F0FF021043886104E0A969B6
:103C600021F0FF010843A8610025284609B0BDE8FE
:103C7000F08FF07A019D10F0180F06D0FEF7C2FF0A
:103C8000122010E0F07A000706D404F5E2304FF479
:103C90008071FDF711F80FE00720089000200790D1
:103CA00001200690022005904FF48070049004F5E6
:103CB000E23004A9FDF76AF8F06840F00200062837
:103CC00002D0F07AC00612D404F5E2304FF400714D
:103CD000FCF7F2FFE56002982061C4F814A0F07AC6
:103CE00040F00400F072E06840F4005069E6FEF72E
:103CF00089FF022005904FF40070049004F5E23033
:103D000004A9FDF743F8E5E70048004000CA9A3BE4
:103D1000751500082DE9F04143681A68D96802F06A
:103D200020050D420ED0C46A617900293FD0E468B5
:103D3000016B022C0AD1CC69012C07D15B684FF0D2
:103D4000000805E000214FF000083AE0D3F80480B5
:103D50008B685E1C8E6083F800804168C9684B05E3
:103D600008D4C90406D5016B8B685E1C8E604FEACF
:103D700018211970066B4368316937684C1C0021A3
:103D8000BC4234611DD1C46A6171D96821F010014F
:103D9000D960E168022911D1F1690024F461032995
:103DA0000ED002290DD0012918BF002109E0012100
:103DB0004FF00008E1715968202102E0022100E083
:103DC0000421DC681440E40605D5DC682C4202D1ED
:103DD0005C6841F04001DC681440240652D5056B54
:103DE00095F8204044B1DC6844F00104DC60DC68F4
:103DF00024F08004DC6045E06E686F69BE421FD02D
:103E0000C46AE468022C05D1EC69022C02D1B5F831
:103E10001A8015E0D5F80CC00CF10104EC609CF898
:103E20000080D3F80CE05FEA4E5409D45FEACE4438
:103E300006D50CF10204EC609CF8014048EA042825
:103E40001FFA88F45C607C1CA6426C611AD1DC68A5
:103E500022F0400224F08004DC60002485F8214038
:103E6000DC6844F04004DC60C46AE668022E07D1D6
:103E7000EE69012E06D1E47AE40603D40024EC6155
:103E800041F00101DC68144064060DD5046B002587
:103E900041F0080184F82150DE6826F04006DE601B
:103EA000E669012E08BFE561140705D5C46A01253E
:103EB00041F02001E5715C68940705D5C46A0125CD
:103EC00041F4807165725C68D40705D0C46A01252D
:103ED00041F40071A5725C68D40508D5C46A012557
:103EE00041F0800125721C6824F480741C609205E6
:103EF00001D431B90CE01A6841F4806122F40072F7
:103F00001A60C06A02681AB10846BDE8F04110475D
:103F1000BDE8F081BCB5574DE97ACA0702D14FF030
:103F2000FF344CE002281CD0012817D0002844D1CF
:103F30002720FDF717FA23480024016A21F4802185
:103F4000016205F114002421C5F807406C60FCF7FC
:103F500081F9E87A00F0FD00E87230E06FF00304C8
:103F60002DE088074FF0000429D40320C5F807404E
:103F7000C5F83240C5F82E406C60C5E90344802284
:103F8000E87210480194016A41F480210162016ADB
:103F900001F48021019101990B49C1F880210A6047
:103FA000016841F48021016000BF00BF00BF00BF75
:103FB000016821F48021016001E06FF004042046D3
:103FC000BCBD00BF2038024004E100E0B0B568B1DC
:103FD00061B1284AD37A5B075CBF4FF0FF30B0BDB8
:103FE0005379012B05D16FF00100B0BD6FF00400D3
:103FF000B0BD214B1C6824F020041C600024C2F8D2
:1040000007401D6845F038051D60D06101205161F1
:1040100054625071D068022809D1106B38B902205F
:10402000106302F12E0000F005F80230DBD0002012
:10403000B0BD00BF68B161B10E4AD37A5B075CBF07
:104040004FF0FF30704792F835302BB16FF0010020
:1040500070476FF0040070471062012091610649BB
:1040600082F83500002090620A6842F080020A60FF
:10407000704700BFB80000200C480040004870475F
:1040800004020E02FEE710B58468032C09D0002C50
:10409000047BD0F810C014BF41F0400141F0800112
:1040A00002E0047BD0F810C02046BDE81040604715
:1040B00010B5047BD0F810C02046BDE81040604722
:1040C00010B5047BD0F810C02046BDE81040604712
:1040D000B0B584684025002C08BF6FF07F05047BD5
:1040E000D0F810C02943C9B22046BDE8B0406047AF
:1040F00010B5047BD0F810C02046BDE810406047E2
:104100002DE9F8430746806810B10020BDE8F88328
:10411000994690460E460025A945F6D0A8193C6957
:10412000FEF786FF01350028F6D04FF0FF30BDE8DE
:10413000F883000080B549480068FEF7C4FB0028FA
:1041400018BF6FF0040080BD80B544480068FEF7DA
:104150002AFC002818BF6FF0040080BD1FB550B1C5
:1041600004463E48006801A9FEF7C1FB013005D0B6
:10417000FEF7C0FD04E06FF0010001E06FF0040005
:1041800004B010BD1FB550B104463448006801A901
:10419000FEF71DFC013005D0FEF7ACFD04E06FF02A
:1041A000010001E06FF0040004B010BD10B590B044
:1041B000B8B1044629480460D720FEF7D5FF564819
:1041C0000E9056480A905648099056480F90564807
:1041D0000D9009A92046FEF78DFC30B16FF0060066
:1041E00001E06FF0010010B010BD0DF12301204679
:1041F000FEF776FCFEF70DFDF5D19DF823106C2936
:10420000F1D101A92046FEF71DFC9DF8050001280B
:104210000BD10E480168204688470028B0FA80F18B
:1042200018BF6FF00400490901E0002001210029B6
:10423000D9D09DF804100129D5D104480168204641
:104240008847002818BF6FF00400CCE7100000205A
:10425000014602480068FEF743BC00BF240000206E
:1042600080B535480068FDF714FE002818BF6FF0D0
:10427000040080BD1FB550B104462F48006801A955
:10428000FDF71FFE013005D0FEF734FD04E06FF0AE
:10429000010001E06FF0040004B010BD10B590B053
:1042A000B8B10446244804603320FEF75DFFD448CB
:1042B0000E90D4480A90D4480990D4480F90D4481E
:1042C0000D9009A92046FDF7A1FF30B16FF006005F
:1042D00001E06FF0010010B010BD0DF12301204688
:1042E000FDF78AFFFEF795FCF5D19DF823104429D0
:1042F000F1D101A92046FDF73FFF9DF804000128F8
:1043000007D12046FDF74AFF002818BF6FF00400D0
:10431000E1E70020DFE700BFA9090008B5080008B1
:10432000FD080008B1080008CD0900080146024850
:104330000068FDF761BF00BF4000002010B10138E8
:10434000FCF770BC70470000034A914208BF01F0BF
:1043500011BB4FF0FF307047000000207CB5FEF726
:10436000C8FD01AA20210123B04700B17CBDFEF7A2
:1043700079FF2021FEF7FDFE01AAA8477CBD7CB590
:10438000FEF7B7FD01AA20210123B04700B17CBD93
:104390009DF8041005F003002568012301F0FC01DD
:1043A00008442021FEF7E5FE01AAA8477CBDD0E91C
:1043B00001C00A460F2101236047BCB5FEF7C0FCCF
:1043C0000DF1060236210223A847FEF761BCBCB5F9
:1043D000FEF7B6FC0DF106023A210223A847FEF7CC
:1043E00057BCBCB5FEF7ACFC0DF107023021012330
:1043F000A847FEF779BEBCB5FEF7A2FC0DF1070297
:1044000031210123A847FEF76FBEBCB5FEF798FC2B
:104410000DF1060228210223A847BDF806102180CD
:10442000BCBD7CB5FEF765FD01AA20210123B04784
:1044300000B17CBD9DF804002021FEF7E9FD01AA32
:10444000A8477CBDBCB5FEF77BFC0DF106023C2104
:104450000223A847FEF71CBCBCB5FEF771FC0DF1AA
:1044600006023E210223A847FEF712BC7CB5054692
:10447000D0E901600C460DF1030232210123B0475F
:1044800000B17CBDD5E9016001AA35210123B04707
:10449000FEF7BFFC01F0030142EA0121FEF711BF64
:1044A0007CB50546D0E901600C460DF103023321CD
:1044B0000123B04700B17CBDD5E9016001AA3521D7
:1044C0000123B047FEF7A5FC01F00C0142EA81117F
:1044D000FEF7F7BEBCB5FEF733FC0DF106022A214C
:1044E0000223A847BDF806102180BCBD80B54C480A
:1044F0000068FDF729FA002818BF6FF0040080BD9E
:1045000080B547480068FDF7DFFA002818BF6FF054
:10451000040080BD58B180B5014641480068FDF7F0
:1045200027FAFEF7DAFD08BF6FF0040080BDFEF742
:10453000C0BC00BF58B180B5014639480068FDF7DE
:10454000D7FAFEF7CAFD08BF6FF0040080BDFEF782
:10455000B0BC00BF10B58CB0B8B1044630480460A0
:10456000BF20FEF70EFD26480A90264806902648F2
:10457000059026480B902648099005A92046FDF78E
:104580006BFA30B16FF0060001E06FF001000CB083
:1045900010BD0DF113012046FDF754FAFEF739FB6B
:1045A000F5D19DF81310BC29F1D169462046FDF7DD
:1045B000BFF99DF8000001280AD12046FDF722FA34
:1045C0000028B0FA80F118BF6FF00400490901E03B
:1045D0000020012151B19DF80210012906D1204689
:1045E000FDF710FA20B16FF00400D0E70028CED11B
:1045F00094F828100020002908BF6FF00400C6E7D7
:10460000A9090008B5080008FD080008B10800085D
:10461000CD090008014602480068FDF713BA00BF43
:10462000540000202DE9F04792B0FCF765FE002011
:10463000494C4A4F0190216941F080512161216923
:1046400001F08051019101990D9038684FF4B471D7
:1046500040F440403860386800F440400D90072036
:104660000A9108210C90022009914FF480010B90CF
:10467000CDE907014FF4A0200290012001900D9890
:1046800001A8FCF7B5FF08B1FCF794FAFCF7B4FEFB
:1046900008B1FCF78FFA4FF480504FF000094FF04B
:1046A0000208052111904FF4A050CDF83C90CDF8B0
:1046B000388010900F200D900DA8FCF7D1FE08B1A6
:1046C000FCF778FACDF804900125FF26BA46206859
:1046D00040F008002060206800F00800FEF78CFA27
:1046E00040F010002060206800F01000FEF784FA0F
:1046F00040F020002060206800F02000FEF77CFAE7
:1047000040F040002060206800F0400001900198D7
:10471000CDF81080CDE902950196CDF8149001AC4A
:1047200007F5D2300E4F2146B8470AF5CE30FEF7D6
:10473000DBFA0AF5D030FEF7D7FA3F202146CDF854
:104740001080CDE9029501900AF5D430B84701F008
:10475000F1F812B0BDE8F087303802400070004038
:104760008D0D000809480A4A4FF0FF33016841F0F7
:10477000010101604FF08040002101601160516231
:104780009362916001210160704700BF4038024090
:10479000040000408AB023A002F0F2F926480DF18F
:1047A0001C084FF0010A04AD0DF1040B8146234CA7
:1047B0004046216988470120FFF7C0FD216928464E
:1047C0008847002003280AD058F8201055F82020E8
:1047D000511A48BF49424BF820100130F2E701ABB3
:1047E00000201E260ECBB6F5FF7F16D0B14203DCAB
:1047F000B242D8BFB3420EDD00274C46074407281B
:1048000088BF04F5806488BF083F01301E360AFA6D
:1048100007F72760E7E71027EFE709A001F0DEF9C7
:10482000C5E700BF3E20416C61726D616E6C6167CF
:10483000650D0A0D00000000180C02404000002029
:10484000583A2025642C20593A2025642C205A3AC5
:104850002025640D0A0000008CB0324C2CA002F020
:104860008FF92F490027086840F0020008602B48A4
:104870000760B7F5504F1CD028485A212A4D04EB49
:1048800007080068B0FBF1F06969E05108F1040025
:104890008847A96908F1100088472448016908F190
:1048A0001C0088472248016908F1280088473437EE
:1048B000DFE71B49086840F4003008601D4802F03B
:1048C0005FF90027E019B7F5504F1ED0E15900F10C
:1048D000140E061D00F1200B006B9BE8000F6CCE40
:1048E000CDE900560B9121469EE81050CDE908B065
:1048F000CDE903CE029405A80C460B9980E8000789
:104900000DA001F06BF93437DCE70A48A7E700BFD8
:104910003E204275666665720D0A0D002400004057
:10492000180C0240900100202400002040000020CC
:1049300070000020CB6E000825642C25642C2564B3
:104940002C25642C25642C25642C25642C25642CB2
:1049500025642C25642C25642C25642C25640D0AE3
:104960000000000098B019A002F00AF90CA8DFF8C6
:10497000689000F1240100F10C0B0B9100F118017B
:104980000A91D9F814100CA88847D9F8181058467D
:104990008847124801690A988847114801690B98AD
:1049A00088470CAB0DF14C0E0ECB0FAF9EE81050AC
:1049B000DDE9168AE1CF8DE8E10004A8CDE9078A98
:1049C00080E8105007A001F009F9DAE73E204353D0
:1049D000560D0A0D000000002400002040000020B9
:1049E0007000002025642C25642C25642C25642C63
:1049F00025642C25642C25642C25642C25642C2509
:104A0000642C25642C25640D0A00000096B03CA09F
:104A100002F0B6F8DFF804B1DFF824A10DF12409A3
:104A20003A483B4CA047DFF8EC80D8F8141013AD9F
:104A30002846884713AB38480ECBD847D8F818100B
:104A40002846884713AB36480ECBD847354801690E
:104A50002846884713AB34480ECBD8473348016902
:104A60002846884713AB32480ECBD84731A0A04721
:104A7000324EA046B16912AD28468847716911AE21
:104A8000304688471298FBF740FDFEF7B0F81198C2
:104A9000FBF73BFD41EC100B01AF02213846D0473C
:104AA000284849463A46D847274C2846A1698847AE
:104AB0006169304688471298FBF727FDFEF797F8A3
:104AC0001198FBF722FD41EC100B38460221D0472C
:104AD0001EA049463A46D8472748016928468847D4
:104AE0001298FBF712FDFEF782F824A04946D8473A
:104AF00029A0C04740F2DC50FFF720FC90E700BF40
:104B00003E2044656D6F0D0A0D000000E46E000844
:104B1000816B000824000020EC6C0008DD5B0008BD
:104B20003C6D000840000020146D0008700000205B
:104B3000646D00082D2D2D0D0D0000005400002087
:104B4000A55800088C6D0008840000204C5053329A
:104B50003248483A205B74656D705D2025377320BC
:104B6000432C205B70726573735D202573206D622A
:104B700061720D0A00000000A0000020535454533D
:104B80003735313A205B74656D705D2025377320B1
:104B9000430D0D0A000000005E5E5E5E5E5E5E5EBE
:104BA0005E5E5E5E5E5E5E5E5E5E5E5E5E5E5E5E25
:104BB0005E5E5E5E5E5E5E5E5E5E5E5E5E5E5E5E15
:104BC0005E5E5E5E5E5E5E5E0D00000000000000E8
:104BD00086B049A001F0D4FF9FED430B9FED4BAA97
:104BE0009FED4BBA9FED4BCA0DF10C080FF228193F
:104BF0005BEC10AB9FED3E0B54EC107B42484169DF
:104C0000404688479DED040A9DED038A9DED059A77
:104C1000B8EEC00A80EE0A0AFEF762F8B8EEC90ADA
:104C200005460E4680EE0A0AFEF75AF841EC190BCB
:104C300046EC105BB8EEC8DAB0EE491AF0EE691A2D
:104C400001F076F9B0EE408A8DEE0A0AF0EE608A45
:104C5000FEF746F8B0EE491A41EC100BF0EE691A77
:104C600001F066F951EC100B52465B46FBF704FB72
:104C70003A462346FBF7A7FBFBF75AFC09EE100A5E
:104C800051EC180B52465B46B4EE4C9A39EE0B0AC7
:104C9000F1EE10FAC8BFB0EE409AFBF7EDFA3A46D3
:104CA0002346FBF790FBFBF743FC00EE100AB4EE43
:104CB0004C0A30EE0B1AF1EE10FAC8BFB0EE410A02
:104CC000FEF70EF8054619EE100A0E46FBF71DFC1E
:104CD00041EC100B48462A4633468DED000B00F0A0
:104CE0007DFF8BE700BF00BF00000000FA210940F4
:104CF000000000A0DDA54C403E204A6F7973746926
:104D0000636B0D0A0D0000002400002000007AC42F
:104D10000000B4C300008743583A2025352E326680
:104D2000207C20593A2025352E32660D0A000000DD
:104D300082B007A001F024FF0D4D0DF10704296991
:104D4000204688474FF47A70FFF7F8FAF7E700BF7C
:104D50003E20493243204F737A696C6C6F736B6FDE
:104D600070204D657373756E670D0A0D00000000AD
:104D7000240000201CB50C460DF102022821062358
:104D800000F0EAF8BDF8021021800199C4F8021081
:104D90001CBDBCB50D4601AA2121FDF752FF00D074
:104DA000BCBDFEF748F82121FEF791F801AAA847FB
:104DB000BCBDBCB50D4601AA2121FDF742FF00D0C4
:104DC000BCBDFDF7E9FF2121FEF781F801AAA84744
:104DD000BCBD7CB50D4601AA2021FDF732FF00D0F5
:104DE0007CBD9DF8040026682021012300F00F00FF
:104DF00040EA0510FEF76BF801AAB0470028EFD192
:104E00006A46204622210123FDF786FFE8D19DF85E
:104E10000010C5F3011025686A46012301F0FC016A
:104E200008442221FEF794F87CBD0A460F21FDF7C5
:104E3000DCBFBCB50D4601AA2E21FDF702FF00D054
:104E4000BCBD9DF804002E21012300F01F0040EAA4
:104E500045102568FEF73BF801AAA847BCBD1CB564
:104E60000C4601AA2521FEF76FFAC1F3011121704A
:104E70001CBDBCB50D4601AA2521FDF7E2FE00D000
:104E8000BCBDFEF70AF801F0CF0141EA0010252170
:104E9000FEF71DF801AAA847BCBD0000BCB50C4632
:104EA00001AA202101230546FDF736FF00D0BCBD35
:104EB0006A4628462521012300F04EF89DF800108F
:104EC0009DF8042001F0040102F00F0242EA810182
:104ED0001B299ABF02A2515C04212170BCBD00BFF6
:104EE000000102030404040408090A0B0404040476
:104EF000101112131404040418191A1B7CB50D4662
:104F000001AA2021FDF79DFE00D07CBD9DF8041074
:104F100005F00F002668012301F0F001084420216C
:104F2000FDF7D5FF01AAB0470028EED16A4620461A
:104F300025210123FDF7F0FEE7D19DF800100420A4
:104F40006A46012300EA9500256801F0FB01084448
:104F50002521FDF7FDFF7CBDD0E901C06047D0F8F9
:104F600000C0806860477CB5FDF778FE01AAFDF7B8
:104F70001EFF00B17CBDFDF7B1FF6221FEF73FF8D7
:104F800001AAA8477CBD7CB5FDF768FE01AAFDF724
:104F90004BFF00B17CBDFEF73CF901F0F30141EAA3
:104FA00080006021FEF72BF801AAA8477CBDD0E95C
:104FB00001C00A464F21012360477CB5FDF74EFE34
:104FC00001AAFDF7F4FE00B17CBDFEF740F96221B5
:104FD000FEF715F801AAA8477CBDBCB5FDF7A9FEF0
:104FE0000DF1020268210623A847FDF701BF7CB539
:104FF000FDF734FE01AAFDF717FF00B17CBDFEF7F7
:1050000008F901F0FC0108446021FDF7F8FF01AA4E
:10501000A8477CBDD0E901C060477CB5FDF71EFE06
:1050200001AAFDF7C4FE00B17CBDFDF77CFF01F0D5
:10503000FD0141EA40006221FDF7E1FF01AAA84716
:105040007CBDD0F800C080686047BCB50D4601AAA1
:105050001121FDF726FE00D0BCBDFDF752FF112146
:10506000FDF772FE01AAA847BCBDBCB50D4601AA5A
:105070001021FDF716FE00D0BCBD9DF8041005F010
:1050800001002568012301F0FD0141EA40001021E3
:10509000FDF75AFE01AAA847BCBD7CB50D4601AA82
:1050A0001021FDF7FEFD00D07CBD6A46204611218F
:1050B000012300F07DF80028F6D19DF8041005F0DA
:1050C00007002668012301F08F0141EA001010213A
:1050D000FDF73AFE01AAB0470028E5D19DF800107F
:1050E000C5F3C10025686A46012301F0FC010844AC
:1050F00011218DF80000A068A8477CBD0A460F2149
:10510000FDF7A4BE00EE100A9FED031AB8EEC00A28
:1051100080EE010A704700BF0000C84200EE100A8E
:105120009FED031AB8EE400A20EE010A704700BF57
:1051300000008035BCB50D4601AA0E21FDF7B1FD7A
:1051400000D0BCBD022005F01001012300EA45009B
:10515000256840EAC1009DF8041001F07D01084473
:105160000E21FDF7F1FD01AAA847BCBDBCB50D4657
:1051700001AA1021FDF795FD00D0BCBD9DF80410DB
:1051800005F003002568012301F0F30141EA8000E6
:105190001021FDF7D9FD01AAA847BCBD1CB50C46DE
:1051A0000DF105022821032300F002F8FEF792B862
:1051B000D0E901C060471CB50C460DF106022B2159
:1051C000FDF7DABDD0F800C0806860471CB50C461A
:1051D0000DF102022821062300F00DF9FEF720B898
:1051E0001CB50C460DF102022221062300F003F942
:1051F000FEF716B8BCB50D4601AA1221FDF717FD42
:1052000000D0BCBDFDF7A8FEFDF7E5FF01AAFDF744
:1052100056BEBCB50D4601AA1221FDF708FD00D00F
:10522000BCBDFDF79FFDFDF7D6FF01AAFDF747BE08
:105230000A460F21FDF7C3BFBCB50D4601AA0A21DE
:10524000FDF7F5FC00D0BCBDFDF730FF0A218DF85D
:10525000040001AAFDF733BEBCB5FDF7F3FF00B1B2
:10526000BCBD01AA20465F210123FDF748FDF7D10F
:10527000FEF744F8C0F3C100FDF7D9FDBCBDB0B5E1
:10528000FDF7E0FF30B9204646212A460223FDF70C
:1052900036FD00D0B0BD20460021BDE8B04000F092
:1052A0009AB81CB50C4601AA1121012300F0A3F8FD
:1052B0009DF804204FF0FF31002301EB12110A2961
:1052C00038BF130923701CBDBCB50D4601A90446A7
:1052D000FFF7D5FF00B1BCBDFDF7BBFD1DD10DF142
:1052E00003012046FFF7B8FF0028F4D19DF8030022
:1052F000032812D8DFE800F002060A0E002D08BFCE
:1053000001250AE0022D98BF022506E0032D98BF73
:10531000032502E0042D98BF04256A46204611218A
:105320000123FDF7ECFCD6D19DF800006A4611215F
:10533000012300F00F0040EA05108DF80000FDF792
:10534000BEBD00001CB50C4601AA1121012300F0CE
:1053500052F8FDF7DAFF9ABF024A515C0021217032
:105360001CBD00BF486C0008BCB50D4601AA112148
:10537000FDF75DFC00D0BCBDFDF717FF11218DF8D6
:10538000040001AAFDF79BBDBCB50D466A46182175
:10539000FDF74DFC00D0BCBD9DF8001002206A4610
:1053A000012300EA951001F0FD01084418218DF851
:1053B0000000FDF718FEEED101AA2046622101236C
:1053C000FDF79DFCE7D1FDF7E6FE62218DF80400B4
:1053D00001AAFDF774BDBCB50D4601AA0121FDF778
:1053E00026FC00D0BCBD9DF804000121FDF73BFE6A
:1053F00001AAFDF764BDD0E901C06047D0F800C044
:10540000806860471CB50C4601AA10210123FFF7F4
:10541000F2FFFDF7EDFE38BF130923701CBD00003D
:10542000BCB50D4601A90446FFF729FF00B1BCBD7C
:10543000FDF70FFD1DD10DF103012046FFF70CFF15
:105440000028F4D19DF80300032812D8DFE800F00B
:1054500002060A0E002D08BF01250AE0022D98BFA2
:10546000022506E0032D98BF032502E0042D98BF16
:1054700004256A46204610210123FDF740FCD6D1C1
:105480009DF800006A461021012300F00F0040EA59
:1054900005108DF80000FDF712BD1CB50C4601AAE1
:1054A00010210123FFF7A7FFFDF7F8BEBCB50D469D
:1054B00001AA1021FDF7BBFB00D0BCBDFDF7DBFD51
:1054C00010218DF8040001AAFDF7F9BC80B57B48D6
:1054D0000068FCF733FF002818BF6FF0040080BDA0
:1054E0001FB550B104467548006801A9FCF74CFF90
:1054F000013005D0FDF7FEFB04E06FF0010001E094
:105500006FF0040004B010BD10B590B0B8B10446FF
:105510006A4804603D20FDF727FED9480E90D9481F
:105520000A90D9480990D9480F90D9480D9009A9F7
:105530002046FCF783FF30B16FF0060001E06FF00A
:10554000010010B010BD0DF123012046FCF763FFF0
:10555000FDF75FFBF5D19DF823104029F1D101A99A
:105560002046FCF793FE9DF80600012807D120464F
:10557000FCF79EFE002818BF6FF00400E1E76FF013
:105580000400DEE701464D480068FCF744BF00BF59
:10559000C8B000208DF80700FFF744F8FFF7E2F8E5
:1055A000444D696802AC20468847DFF80CA104F13D
:1055B0003000DAF804108847DFF8009104F1640045
:1055C000D9F8041088473E4F04F190007968884765
:1055D0003C4E04F1BC0071688847DFF8EC8004F1B0
:1055E000E800D8F804108847A8688047E868804732
:1055F000DAF808008047D9F808008047B868804783
:10560000F8688047B0688047F0688047D8F808009D
:1056100080472E4801F0B4FA0DF1070429692046AD
:1056200088479DF807102A482A4DA847DAF80C1039
:10563000204688479DF807102748A847D9F80C103E
:10564000204688479DF807102448A8473969204616
:1056500088479DF8071022A0A8473169204688474F
:105660009DF8071029A0A847D8F80C1020468847B5
:105670009DF8071030A0A8473A4801F081FA3A484F
:1056800001680A060BD54A060BD58A060BD5CA0651
:105690000BD58A070BD5C907F2D1FFF7B7F9FFF78A
:1056A00061F9FFF795FAFFF775F8FFF7D5F8FFF7FF
:1056B0003FFB00BF240000204000002070000020BD
:1056C0005400002084000020A0000020AF6E0008DD
:1056D000086E0008DD5B0008DD6D0008B26D000893
:1056E000485453323231202068756D696469747989
:1056F00020262074656D7065726174757265202056
:1057000020203D20307825580D0A00004C5053329F
:1057100032484820207072657373757265202620A8
:1057200074656D70657261747572652020203D200E
:10573000307825580D0A0000535454533735312022
:1057400074656D706572617475726520202020200B
:10575000202020202020202020203D203078255887
:105760000D0A0000336E00081014024080B54C484A
:105770000068FCF7EAFE002818BF6FF0040080BD47
:1057800080B547480068FCF73DFF002818BF6FF060
:10579000040080BD58B180B5014641480068FCF75F
:1057A000E4FEFDF79AFC08BF6FF0040080BDFDF732
:1057B00080BB00BF58B180B5014639480068FCF78E
:1057C00031FFFDF78AFC08BF6FF0040080BDFDF7D4
:1057D00070BB00BF10B58CB0B8B10446304804604F
:1057E000BB20FDF7CEFBF4480A90F4480690F4483D
:1057F0000590F4480B90F448099005A92046FCF761
:10580000CFFE30B16FF0060001E06FF001000CB088
:1058100010BD0DF113012046FCF7B9FEFDF7F9F9B3
:10582000F5D19DF81310B329F1D169462046FCF754
:1058300055FE9DF8000001280AD12046FCF75AFECB
:105840000028B0FA80F118BF6FF00400490901E0A8
:105850000020012151B19DF80110012906D12046F7
:10586000FCF748FE20B16FF00400D0E70028CED14D
:1058700094F828100020002908BF6FF00400C6E744
:10588000A9090008B5080008FD080008B1080008CB
:10589000CD090008014602480068FCF778BE00BF49
:1058A000840000202DE9F0418046012521B105EB5F
:1058B000850001394500F9E757EC106B3046394651
:1058C000FAF704FE044619A14046224600F096F974
:1058D0002046FAF7EAFD02460B4630463946FAF70B
:1058E0006CFD044628460E46FAF7DFFD02460B46DD
:1058F00020463146FAF767FDFAF7E8FD06464046CE
:10590000FAF7B3FC40440A213022142D06D3B5FB2C
:10591000F1F5B54202DD00F8012BF6E704A13246AD
:1059200000F06CF94046BDE8F08100BF25692E000B
:105930002569000010B5194C0020A168884768B996
:1059400021690220884748B9A46A01204FF4E13157
:10595000A04718B916200121A04710B14FF0FF3021
:1059600010BD15200121A047002818BF4FF0FF30BF
:1059700010BD00BFBCB5094D04468DF807000DF100
:10598000070001216A69904710B14FF0FF3403E02E
:105990002D6AA8470128FCD12046BCBD686C0008D0
:1059A00070B50C460546D0E90160FD210123224671
:1059B000B04730B9D5E90160621CFE210123B04730
:1059C00000B170BDD5E901C0A21CFF210123BDE8D3
:1059D0007040604700EE100A9FED031AB8EEC00A4F
:1059E00020EE010A704700BF0000803B7CB5FDF748
:1059F000C7FB01AAFDF788FB00B17CBD9DF8040040
:105A00000321FDF7A5F901AAA8477CBDBCB5FDF7A8
:105A100015FB01AA03210123A8479DF80410C1F337
:105A200081012170BCBD7CB5FDF7AAFB01AAFDF781
:105A30006BFB00B17CBD9DF8041005F003002568E8
:105A4000012301F0F30141EA800003218DF80400F5
:105A5000A06801AAA8477CBD7FB50446AA200D46D0
:105A6000042101238DF80700D4E9016002AAB047A0
:105A700080BB9DF8081005F00F002668012301F097
:105A8000F001084404218DF80800A06802AAB0477C
:105A900000BBD4E9016003AAFDF736FBD0B99DF83D
:105AA0000C1040202668012300EA550001F0BF01D8
:105AB000084403218DF80C00A06803AAB047902D7C
:105AC00008BF002806D12568A0680DF107020F2144
:105AD0000123A84704B070BD7CB50C4605460DF106
